:020000040000FA
:10000000200220204D01000051010000530100009A
:1000100000000000000000000000000000000000E0
:10002000000000000000000000000000550100007A
:10003000000000000000000057010000590100000E
:100040005B0100005B0100005B0100005B01000040
:100050005B0100005B0100005B0100005B01000030
:10006000000000005B0100005B01000000000000D8
:10007000000000005B0100005B0100005B0100006C
:100080005B0100005B0100005B0100005B01000000
:100090005B0100005B0100000000000000000000A8
:1000A0005B0100005B010000000000000000000098
:1000B0005B010000000000005B0100005B0100002C
:1000C00000F002F800F032F80CA030C8083824180C
:1000D0002D18671EA246AB4654465D46AC4201D180
:1000E00000F024F87E460F3EB6460FCC0126334280
:1000F00000D0FB1A3343A246AB461847B4040000B5
:10010000C404000000000000002300240025002695
:10011000103A01D378C1FBD8520700D330C100D5C3
:100120000B6070471FB51FBD10B510BD00F027F85C
:100130001146FFF7F7FF00F003FA00F03FF803B4B1
:10014000FFF7F2FF03BC00F045F800000648004747
:10015000FEE7FEE7FEE7FEE7FEE7FEE703480449A9
:10016000024A044B70470000C1000000200120201B
:1001700020022020200120207047704770477546DC
:1001800000F024F8AE46050069465346C008C0009A
:10019000854618B020B5FFF7E1FF60BCB6460026E3
:1001A0000027C0C5C0C5C0C5C0C5C0C5C0C5C0C585
:1001B000C0C5403D490849008D46704710B504460A
:1001C000C046C0462046FFF7BAFF10BD0048704742
:1001D0000000202001491820ABBEFEE726000200E7
:1001E0007047811E091F00BFFCD27047F0B584B074
:1001F000012422022A4B196803929143196048494D
:100200000D686D04FCD5457E25409E69A643741992
:100210009C612024045D03252C40DE69AE43341923
:10022000DC61204C256805262660466A37681F6217
:1002300076685E6207262E402660C4697F252D02FF
:10024000DE69AE436406640C3419DC6107684568F6
:1002500082680092C66802690192426902929A69B4
:10026000114C14403A07120B2D03ADB2AA183243B9
:10027000009D2D072D0D1543019A1543029A154334
:10028000007E2843094A0240101998611868039AB1
:100290001043186008688005FCD504B0F0BDC04666
:1002A00008010B40001340408D00F0FF72FF0F006B
:1002B000F0B5124B1D46083D2E680124A6432E6062
:1002C0000326360330401F68B74338181860186893
:1002D000FF26B043C9B24018186028682043286040
:1002E00018682107002A06D0084318600C480168E6
:1002F000C905FCD5F0BD88431860F0BD10010B4066
:100300006D498860064802689202FCD501221204F9
:100310000B6813430B600168C906FCD57047C046E3
:1003200004020B40B0B54A68364BC250364A8018BA
:100330000A78222A58D8930001A4E3589F46C04661
:10034000DF030000E9030000DF030000E903000011
:10035000E9030000E9030000E9030000E9030000ED
:10036000E9030000E9030000E9030000E9030000DD
:10037000E9030000E9030000E9030000E9030000CD
:10038000CD030000E9030000CD030000E9030000F5
:10039000E9030000E9030000E9030000E9030000AD
:1003A000E9030000E9030000E9030000E90300009D
:1003B000E9030000E9030000E9030000E90300008D
:1003C000CD030000E9030000CD03000003231B0759
:1003D00004689C4301235B07E318036004E00323E4
:1003E0001B0704689C4304600B69C360CB68074C1F
:1003F0001C40C36A064D1D402B19C362097A114384
:100400000160B0BD081800000418000077770200F2
:100410008888FDFF10B50122120383180C789C60B8
:100420004B7883508978014A815010BD0C1100002F
:100430000748002101604160064881210162C161D5
:100440000160312080050449086008637047C04698
:1004500028804240C8804240A0320A4070B515480A
:10046000002404600F200002134D296881430122FB
:100470005002081828600320C1432B1F1E680E403D
:100480001E6069689143696011026A688A436A6004
:10049000000321462246FFF70BFF0848FFF7A6FEA0
:1004A0002868102101432020814329602046FFF75E
:1004B00027FF70BD08030B4004010B406C050000D2
:1004C00010B5064C06492046FFF7A4FF0549204613
:1004D000FFF728FF04480121016010BD000086409D
:1004E00094050000980500000811864080B500F0D2
:1004F0000DF8FFF79DFFFFF7B1FFFFF7E1FFB82011
:10050000014900220A5480BD6000202080B50748C0
:1005100007494160074A5160074B5960074901602C
:10052000116019601020FFF75CFE80BD00080A40D2
:10053000030000B100280A400008864001000026A0
:10054000FFF7D4FF01208006064D28612120800599
:100550002860054C2046FFF744FE312080052862C4
:10056000F8E7C04690320A40005A620201000000DB
:10057000000000000000000000000000000000007B
:100580001000000000010000030000000000000057
:100590003400C4410800000000000000000000001A
:1005A000000000000000000000000000000000004B
:1005B000C00500000000202020020000080100000B
:04000005000000C136
:00000001FF
